{
	"personalSavingsBank.sol": {
		"SavingsBank": {
			"abi": [
				{
					"inputs": [],
					"name": "deposit",
					"outputs": [],
					"stateMutability": "payable",
					"type": "function"
				},
				{
					"inputs": [],
					"name": "getBalance",
					"outputs": [
						{
							"internalType": "uint256",
							"name": "",
							"type": "uint256"
						}
					],
					"stateMutability": "view",
					"type": "function"
				},
				{
					"inputs": [
						{
							"internalType": "uint256",
							"name": "_amount",
							"type": "uint256"
						}
					],
					"name": "withdraw",
					"outputs": [],
					"stateMutability": "nonpayable",
					"type": "function"
				}
			],
			"devdoc": {
				"kind": "dev",
				"methods": {},
				"version": 1
			},
			"evm": {
				"assembly": "    /* \"personalSavingsBank.sol\":74:640  contract SavingsBank... */\n  mstore(0x40, 0x80)\n  callvalue\n  dup1\n  iszero\n  tag_1\n  jumpi\n  revert(0x00, 0x00)\ntag_1:\n  pop\n  dataSize(sub_0)\n  dup1\n  dataOffset(sub_0)\n  0x00\n  codecopy\n  0x00\n  return\nstop\n\nsub_0: assembly {\n        /* \"personalSavingsBank.sol\":74:640  contract SavingsBank... */\n      mstore(0x40, 0x80)\n      jumpi(tag_1, lt(calldatasize, 0x04))\n      shr(0xe0, calldataload(0x00))\n      dup1\n      0x12065fe0\n      eq\n      tag_2\n      jumpi\n      dup1\n      0x2e1a7d4d\n      eq\n      tag_3\n      jumpi\n      dup1\n      0xd0e30db0\n      eq\n      tag_4\n      jumpi\n    tag_1:\n      revert(0x00, 0x00)\n        /* \"personalSavingsBank.sol\":218:318  function getBalance() public view returns(uint)... */\n    tag_2:\n      callvalue\n      dup1\n      iszero\n      tag_5\n      jumpi\n      revert(0x00, 0x00)\n    tag_5:\n      pop\n      tag_6\n      tag_7\n      jump\t// in\n    tag_6:\n      mload(0x40)\n      tag_8\n      swap2\n      swap1\n      tag_9\n      jump\t// in\n    tag_8:\n      mload(0x40)\n      dup1\n      swap2\n      sub\n      swap1\n      return\n        /* \"personalSavingsBank.sol\":324:637  function withdraw(uint _amount) public... */\n    tag_3:\n      callvalue\n      dup1\n      iszero\n      tag_10\n      jumpi\n      revert(0x00, 0x00)\n    tag_10:\n      pop\n      tag_11\n      0x04\n      dup1\n      calldatasize\n      sub\n      dup2\n      add\n      swap1\n      tag_12\n      swap2\n      swap1\n      tag_13\n      jump\t// in\n    tag_12:\n      tag_14\n      jump\t// in\n    tag_11:\n      stop\n        /* \"personalSavingsBank.sol\":103:212  function deposit() public payable... */\n    tag_4:\n      tag_15\n      tag_16\n      jump\t// in\n    tag_15:\n      stop\n        /* \"personalSavingsBank.sol\":218:318  function getBalance() public view returns(uint)... */\n    tag_7:\n        /* \"personalSavingsBank.sol\":260:264  uint */\n      0x00\n        /* \"personalSavingsBank.sol\":288:309  address(this).balance */\n      selfbalance\n        /* \"personalSavingsBank.sol\":281:309  return address(this).balance */\n      swap1\n      pop\n        /* \"personalSavingsBank.sol\":218:318  function getBalance() public view returns(uint)... */\n      swap1\n      jump\t// out\n        /* \"personalSavingsBank.sol\":324:637  function withdraw(uint _amount) public... */\n    tag_14:\n        /* \"personalSavingsBank.sol\":397:398  0 */\n      0x00\n        /* \"personalSavingsBank.sol\":387:394  _amount */\n      dup2\n        /* \"personalSavingsBank.sol\":387:398  _amount > 0 */\n      gt\n        /* \"personalSavingsBank.sol\":379:432  require(_amount > 0, \"Amount must be greater than 0\") */\n      tag_19\n      jumpi\n      mload(0x40)\n      0x08c379a000000000000000000000000000000000000000000000000000000000\n      dup2\n      mstore\n      0x04\n      add\n      tag_20\n      swap1\n      tag_21\n      jump\t// in\n    tag_20:\n      mload(0x40)\n      dup1\n      swap2\n      sub\n      swap1\n      revert\n    tag_19:\n        /* \"personalSavingsBank.sol\":474:481  _amount */\n      dup1\n        /* \"personalSavingsBank.sol\":451:472  address(this).balance */\n      selfbalance\n        /* \"personalSavingsBank.sol\":451:481  address(this).balance>=_amount */\n      lt\n      iszero\n        /* \"personalSavingsBank.sol\":443:506  require(address(this).balance>=_amount, \"Insufficient Balance\") */\n      tag_22\n      jumpi\n      mload(0x40)\n      0x08c379a000000000000000000000000000000000000000000000000000000000\n      dup2\n      mstore\n      0x04\n      add\n      tag_23\n      swap1\n      tag_24\n      jump\t// in\n    tag_23:\n      mload(0x40)\n      dup1\n      swap2\n      sub\n      swap1\n      revert\n    tag_22:\n        /* \"personalSavingsBank.sol\":520:532  bool success */\n      0x00\n        /* \"personalSavingsBank.sol\":546:556  msg.sender */\n      caller\n        /* \"personalSavingsBank.sol\":538:562  payable(msg.sender).call */\n      0xffffffffffffffffffffffffffffffffffffffff\n      and\n        /* \"personalSavingsBank.sol\":570:577  _amount */\n      dup3\n        /* \"personalSavingsBank.sol\":538:582  payable(msg.sender).call{value: _amount}(\"\") */\n      mload(0x40)\n      tag_25\n      swap1\n      tag_26\n      jump\t// in\n    tag_25:\n      0x00\n      mload(0x40)\n      dup1\n      dup4\n      sub\n      dup2\n      dup6\n      dup8\n      gas\n      call\n      swap3\n      pop\n      pop\n      pop\n      returndatasize\n      dup1\n      0x00\n      dup2\n      eq\n      tag_29\n      jumpi\n      mload(0x40)\n      swap2\n      pop\n      and(add(returndatasize, 0x3f), not(0x1f))\n      dup3\n      add\n      0x40\n      mstore\n      returndatasize\n      dup3\n      mstore\n      returndatasize\n      0x00\n      0x20\n      dup5\n      add\n      returndatacopy\n      jump(tag_28)\n    tag_29:\n      0x60\n      swap2\n      pop\n    tag_28:\n      pop\n        /* \"personalSavingsBank.sol\":519:582  (bool success, ) = payable(msg.sender).call{value: _amount}(\"\") */\n      pop\n      swap1\n      pop\n        /* \"personalSavingsBank.sol\":601:608  success */\n      dup1\n        /* \"personalSavingsBank.sol\":593:629  require(success, \"Transfer failed.\") */\n      tag_30\n      jumpi\n      mload(0x40)\n      0x08c379a000000000000000000000000000000000000000000000000000000000\n      dup2\n      mstore\n      0x04\n      add\n      tag_31\n      swap1\n      tag_32\n      jump\t// in\n    tag_31:\n      mload(0x40)\n      dup1\n      swap2\n      sub\n      swap1\n      revert\n    tag_30:\n        /* \"personalSavingsBank.sol\":368:637  {... */\n      pop\n        /* \"personalSavingsBank.sol\":324:637  function withdraw(uint _amount) public... */\n      pop\n      jump\t// out\n        /* \"personalSavingsBank.sol\":103:212  function deposit() public payable... */\n    tag_16:\n        /* \"personalSavingsBank.sol\":173:174  0 */\n      0x00\n        /* \"personalSavingsBank.sol\":161:170  msg.value */\n      callvalue\n        /* \"personalSavingsBank.sol\":161:174  msg.value > 0 */\n      gt\n        /* \"personalSavingsBank.sol\":153:204  require(msg.value > 0, \"Put some value to deposit\") */\n      tag_34\n      jumpi\n      mload(0x40)\n      0x08c379a000000000000000000000000000000000000000000000000000000000\n      dup2\n      mstore\n      0x04\n      add\n      tag_35\n      swap1\n      tag_36\n      jump\t// in\n    tag_35:\n      mload(0x40)\n      dup1\n      swap2\n      sub\n      swap1\n      revert\n    tag_34:\n        /* \"personalSavingsBank.sol\":103:212  function deposit() public payable... */\n      jump\t// out\n        /* \"#utility.yul\":7:84   */\n    tag_37:\n        /* \"#utility.yul\":44:51   */\n      0x00\n        /* \"#utility.yul\":73:78   */\n      dup2\n        /* \"#utility.yul\":62:78   */\n      swap1\n      pop\n        /* \"#utility.yul\":7:84   */\n      swap2\n      swap1\n      pop\n      jump\t// out\n        /* \"#utility.yul\":90:208   */\n    tag_38:\n        /* \"#utility.yul\":177:201   */\n      tag_59\n        /* \"#utility.yul\":195:200   */\n      dup2\n        /* \"#utility.yul\":177:201   */\n      tag_37\n      jump\t// in\n    tag_59:\n        /* \"#utility.yul\":172:175   */\n      dup3\n        /* \"#utility.yul\":165:202   */\n      mstore\n        /* \"#utility.yul\":90:208   */\n      pop\n      pop\n      jump\t// out\n        /* \"#utility.yul\":214:436   */\n    tag_9:\n        /* \"#utility.yul\":307:311   */\n      0x00\n        /* \"#utility.yul\":345:347   */\n      0x20\n        /* \"#utility.yul\":334:343   */\n      dup3\n        /* \"#utility.yul\":330:348   */\n      add\n        /* \"#utility.yul\":322:348   */\n      swap1\n      pop\n        /* \"#utility.yul\":358:429   */\n      tag_61\n        /* \"#utility.yul\":426:427   */\n      0x00\n        /* \"#utility.yul\":415:424   */\n      dup4\n        /* \"#utility.yul\":411:428   */\n      add\n        /* \"#utility.yul\":402:408   */\n      dup5\n        /* \"#utility.yul\":358:429   */\n      tag_38\n      jump\t// in\n    tag_61:\n        /* \"#utility.yul\":214:436   */\n      swap3\n      swap2\n      pop\n      pop\n      jump\t// out\n        /* \"#utility.yul\":523:640   */\n    tag_40:\n        /* \"#utility.yul\":632:633   */\n      0x00\n        /* \"#utility.yul\":629:630   */\n      0x00\n        /* \"#utility.yul\":622:634   */\n      revert\n        /* \"#utility.yul\":769:891   */\n    tag_42:\n        /* \"#utility.yul\":842:866   */\n      tag_66\n        /* \"#utility.yul\":860:865   */\n      dup2\n        /* \"#utility.yul\":842:866   */\n      tag_37\n      jump\t// in\n    tag_66:\n        /* \"#utility.yul\":835:840   */\n      dup2\n        /* \"#utility.yul\":832:867   */\n      eq\n        /* \"#utility.yul\":822:885   */\n      tag_67\n      jumpi\n        /* \"#utility.yul\":881:882   */\n      0x00\n        /* \"#utility.yul\":878:879   */\n      0x00\n        /* \"#utility.yul\":871:883   */\n      revert\n        /* \"#utility.yul\":822:885   */\n    tag_67:\n        /* \"#utility.yul\":769:891   */\n      pop\n      jump\t// out\n        /* \"#utility.yul\":897:1036   */\n    tag_43:\n        /* \"#utility.yul\":943:948   */\n      0x00\n        /* \"#utility.yul\":981:987   */\n      dup2\n        /* \"#utility.yul\":968:988   */\n      calldataload\n        /* \"#utility.yul\":959:988   */\n      swap1\n      pop\n        /* \"#utility.yul\":997:1030   */\n      tag_69\n        /* \"#utility.yul\":1024:1029   */\n      dup2\n        /* \"#utility.yul\":997:1030   */\n      tag_42\n      jump\t// in\n    tag_69:\n        /* \"#utility.yul\":897:1036   */\n      swap3\n      swap2\n      pop\n      pop\n      jump\t// out\n        /* \"#utility.yul\":1042:1371   */\n    tag_13:\n        /* \"#utility.yul\":1101:1107   */\n      0x00\n        /* \"#utility.yul\":1150:1152   */\n      0x20\n        /* \"#utility.yul\":1138:1147   */\n      dup3\n        /* \"#utility.yul\":1129:1136   */\n      dup5\n        /* \"#utility.yul\":1125:1148   */\n      sub\n        /* \"#utility.yul\":1121:1153   */\n      slt\n        /* \"#utility.yul\":1118:1237   */\n      iszero\n      tag_71\n      jumpi\n        /* \"#utility.yul\":1156:1235   */\n      tag_72\n      tag_40\n      jump\t// in\n    tag_72:\n        /* \"#utility.yul\":1118:1237   */\n    tag_71:\n        /* \"#utility.yul\":1276:1277   */\n      0x00\n        /* \"#utility.yul\":1301:1354   */\n      tag_73\n        /* \"#utility.yul\":1346:1353   */\n      dup5\n        /* \"#utility.yul\":1337:1343   */\n      dup3\n        /* \"#utility.yul\":1326:1335   */\n      dup6\n        /* \"#utility.yul\":1322:1344   */\n      add\n        /* \"#utility.yul\":1301:1354   */\n      tag_43\n      jump\t// in\n    tag_73:\n        /* \"#utility.yul\":1291:1354   */\n      swap2\n      pop\n        /* \"#utility.yul\":1247:1364   */\n      pop\n        /* \"#utility.yul\":1042:1371   */\n      swap3\n      swap2\n      pop\n      pop\n      jump\t// out\n        /* \"#utility.yul\":1377:1546   */\n    tag_44:\n        /* \"#utility.yul\":1461:1472   */\n      0x00\n        /* \"#utility.yul\":1495:1501   */\n      dup3\n        /* \"#utility.yul\":1490:1493   */\n      dup3\n        /* \"#utility.yul\":1483:1502   */\n      mstore\n        /* \"#utility.yul\":1535:1539   */\n      0x20\n        /* \"#utility.yul\":1530:1533   */\n      dup3\n        /* \"#utility.yul\":1526:1540   */\n      add\n        /* \"#utility.yul\":1511:1540   */\n      swap1\n      pop\n        /* \"#utility.yul\":1377:1546   */\n      swap3\n      swap2\n      pop\n      pop\n      jump\t// out\n        /* \"#utility.yul\":1552:1731   */\n    tag_45:\n        /* \"#utility.yul\":1692:1723   */\n      0x416d6f756e74206d7573742062652067726561746572207468616e2030000000\n        /* \"#utility.yul\":1688:1689   */\n      0x00\n        /* \"#utility.yul\":1680:1686   */\n      dup3\n        /* \"#utility.yul\":1676:1690   */\n      add\n        /* \"#utility.yul\":1669:1724   */\n      mstore\n        /* \"#utility.yul\":1552:1731   */\n      pop\n      jump\t// out\n        /* \"#utility.yul\":1737:2103   */\n    tag_46:\n        /* \"#utility.yul\":1879:1882   */\n      0x00\n        /* \"#utility.yul\":1900:1967   */\n      tag_77\n        /* \"#utility.yul\":1964:1966   */\n      0x1d\n        /* \"#utility.yul\":1959:1962   */\n      dup4\n        /* \"#utility.yul\":1900:1967   */\n      tag_44\n      jump\t// in\n    tag_77:\n        /* \"#utility.yul\":1893:1967   */\n      swap2\n      pop\n        /* \"#utility.yul\":1976:2069   */\n      tag_78\n        /* \"#utility.yul\":2065:2068   */\n      dup3\n        /* \"#utility.yul\":1976:2069   */\n      tag_45\n      jump\t// in\n    tag_78:\n        /* \"#utility.yul\":2094:2096   */\n      0x20\n        /* \"#utility.yul\":2089:2092   */\n      dup3\n        /* \"#utility.yul\":2085:2097   */\n      add\n        /* \"#utility.yul\":2078:2097   */\n      swap1\n      pop\n        /* \"#utility.yul\":1737:2103   */\n      swap2\n      swap1\n      pop\n      jump\t// out\n        /* \"#utility.yul\":2109:2528   */\n    tag_21:\n        /* \"#utility.yul\":2275:2279   */\n      0x00\n        /* \"#utility.yul\":2313:2315   */\n      0x20\n        /* \"#utility.yul\":2302:2311   */\n      dup3\n        /* \"#utility.yul\":2298:2316   */\n      add\n        /* \"#utility.yul\":2290:2316   */\n      swap1\n      pop\n        /* \"#utility.yul\":2362:2371   */\n      dup2\n        /* \"#utility.yul\":2356:2360   */\n      dup2\n        /* \"#utility.yul\":2352:2372   */\n      sub\n        /* \"#utility.yul\":2348:2349   */\n      0x00\n        /* \"#utility.yul\":2337:2346   */\n      dup4\n        /* \"#utility.yul\":2333:2350   */\n      add\n        /* \"#utility.yul\":2326:2373   */\n      mstore\n        /* \"#utility.yul\":2390:2521   */\n      tag_80\n        /* \"#utility.yul\":2516:2520   */\n      dup2\n        /* \"#utility.yul\":2390:2521   */\n      tag_46\n      jump\t// in\n    tag_80:\n        /* \"#utility.yul\":2382:2521   */\n      swap1\n      pop\n        /* \"#utility.yul\":2109:2528   */\n      swap2\n      swap1\n      pop\n      jump\t// out\n        /* \"#utility.yul\":2534:2704   */\n    tag_47:\n        /* \"#utility.yul\":2674:2696   */\n      0x496e73756666696369656e742042616c616e6365000000000000000000000000\n        /* \"#utility.yul\":2670:2671   */\n      0x00\n        /* \"#utility.yul\":2662:2668   */\n      dup3\n        /* \"#utility.yul\":2658:2672   */\n      add\n        /* \"#utility.yul\":2651:2697   */\n      mstore\n        /* \"#utility.yul\":2534:2704   */\n      pop\n      jump\t// out\n        /* \"#utility.yul\":2710:3076   */\n    tag_48:\n        /* \"#utility.yul\":2852:2855   */\n      0x00\n        /* \"#utility.yul\":2873:2940   */\n      tag_83\n        /* \"#utility.yul\":2937:2939   */\n      0x14\n        /* \"#utility.yul\":2932:2935   */\n      dup4\n        /* \"#utility.yul\":2873:2940   */\n      tag_44\n      jump\t// in\n    tag_83:\n        /* \"#utility.yul\":2866:2940   */\n      swap2\n      pop\n        /* \"#utility.yul\":2949:3042   */\n      tag_84\n        /* \"#utility.yul\":3038:3041   */\n      dup3\n        /* \"#utility.yul\":2949:3042   */\n      tag_47\n      jump\t// in\n    tag_84:\n        /* \"#utility.yul\":3067:3069   */\n      0x20\n        /* \"#utility.yul\":3062:3065   */\n      dup3\n        /* \"#utility.yul\":3058:3070   */\n      add\n        /* \"#utility.yul\":3051:3070   */\n      swap1\n      pop\n        /* \"#utility.yul\":2710:3076   */\n      swap2\n      swap1\n      pop\n      jump\t// out\n        /* \"#utility.yul\":3082:3501   */\n    tag_24:\n        /* \"#utility.yul\":3248:3252   */\n      0x00\n        /* \"#utility.yul\":3286:3288   */\n      0x20\n        /* \"#utility.yul\":3275:3284   */\n      dup3\n        /* \"#utility.yul\":3271:3289   */\n      add\n        /* \"#utility.yul\":3263:3289   */\n      swap1\n      pop\n        /* \"#utility.yul\":3335:3344   */\n      dup2\n        /* \"#utility.yul\":3329:3333   */\n      dup2\n        /* \"#utility.yul\":3325:3345   */\n      sub\n        /* \"#utility.yul\":3321:3322   */\n      0x00\n        /* \"#utility.yul\":3310:3319   */\n      dup4\n        /* \"#utility.yul\":3306:3323   */\n      add\n        /* \"#utility.yul\":3299:3346   */\n      mstore\n        /* \"#utility.yul\":3363:3494   */\n      tag_86\n        /* \"#utility.yul\":3489:3493   */\n      dup2\n        /* \"#utility.yul\":3363:3494   */\n      tag_48\n      jump\t// in\n    tag_86:\n        /* \"#utility.yul\":3355:3494   */\n      swap1\n      pop\n        /* \"#utility.yul\":3082:3501   */\n      swap2\n      swap1\n      pop\n      jump\t// out\n        /* \"#utility.yul\":3507:3654   */\n    tag_49:\n        /* \"#utility.yul\":3608:3619   */\n      0x00\n        /* \"#utility.yul\":3645:3648   */\n      dup2\n        /* \"#utility.yul\":3630:3648   */\n      swap1\n      pop\n        /* \"#utility.yul\":3507:3654   */\n      swap3\n      swap2\n      pop\n      pop\n      jump\t// out\n        /* \"#utility.yul\":3660:3774   */\n    tag_50:\n      pop\n      jump\t// out\n        /* \"#utility.yul\":3780:4178   */\n    tag_51:\n        /* \"#utility.yul\":3939:3942   */\n      0x00\n        /* \"#utility.yul\":3960:4043   */\n      tag_90\n        /* \"#utility.yul\":4041:4042   */\n      0x00\n        /* \"#utility.yul\":4036:4039   */\n      dup4\n        /* \"#utility.yul\":3960:4043   */\n      tag_49\n      jump\t// in\n    tag_90:\n        /* \"#utility.yul\":3953:4043   */\n      swap2\n      pop\n        /* \"#utility.yul\":4052:4145   */\n      tag_91\n        /* \"#utility.yul\":4141:4144   */\n      dup3\n        /* \"#utility.yul\":4052:4145   */\n      tag_50\n      jump\t// in\n    tag_91:\n        /* \"#utility.yul\":4170:4171   */\n      0x00\n        /* \"#utility.yul\":4165:4168   */\n      dup3\n        /* \"#utility.yul\":4161:4172   */\n      add\n        /* \"#utility.yul\":4154:4172   */\n      swap1\n      pop\n        /* \"#utility.yul\":3780:4178   */\n      swap2\n      swap1\n      pop\n      jump\t// out\n        /* \"#utility.yul\":4184:4563   */\n    tag_26:\n        /* \"#utility.yul\":4368:4371   */\n      0x00\n        /* \"#utility.yul\":4390:4537   */\n      tag_93\n        /* \"#utility.yul\":4533:4536   */\n      dup3\n        /* \"#utility.yul\":4390:4537   */\n      tag_51\n      jump\t// in\n    tag_93:\n        /* \"#utility.yul\":4383:4537   */\n      swap2\n      pop\n        /* \"#utility.yul\":4554:4557   */\n      dup2\n        /* \"#utility.yul\":4547:4557   */\n      swap1\n      pop\n        /* \"#utility.yul\":4184:4563   */\n      swap2\n      swap1\n      pop\n      jump\t// out\n        /* \"#utility.yul\":4569:4735   */\n    tag_52:\n        /* \"#utility.yul\":4709:4727   */\n      0x5472616e73666572206661696c65642e00000000000000000000000000000000\n        /* \"#utility.yul\":4705:4706   */\n      0x00\n        /* \"#utility.yul\":4697:4703   */\n      dup3\n        /* \"#utility.yul\":4693:4707   */\n      add\n        /* \"#utility.yul\":4686:4728   */\n      mstore\n        /* \"#utility.yul\":4569:4735   */\n      pop\n      jump\t// out\n        /* \"#utility.yul\":4741:5107   */\n    tag_53:\n        /* \"#utility.yul\":4883:4886   */\n      0x00\n        /* \"#utility.yul\":4904:4971   */\n      tag_96\n        /* \"#utility.yul\":4968:4970   */\n      0x10\n        /* \"#utility.yul\":4963:4966   */\n      dup4\n        /* \"#utility.yul\":4904:4971   */\n      tag_44\n      jump\t// in\n    tag_96:\n        /* \"#utility.yul\":4897:4971   */\n      swap2\n      pop\n        /* \"#utility.yul\":4980:5073   */\n      tag_97\n        /* \"#utility.yul\":5069:5072   */\n      dup3\n        /* \"#utility.yul\":4980:5073   */\n      tag_52\n      jump\t// in\n    tag_97:\n        /* \"#utility.yul\":5098:5100   */\n      0x20\n        /* \"#utility.yul\":5093:5096   */\n      dup3\n        /* \"#utility.yul\":5089:5101   */\n      add\n        /* \"#utility.yul\":5082:5101   */\n      swap1\n      pop\n        /* \"#utility.yul\":4741:5107   */\n      swap2\n      swap1\n      pop\n      jump\t// out\n        /* \"#utility.yul\":5113:5532   */\n    tag_32:\n        /* \"#utility.yul\":5279:5283   */\n      0x00\n        /* \"#utility.yul\":5317:5319   */\n      0x20\n        /* \"#utility.yul\":5306:5315   */\n      dup3\n        /* \"#utility.yul\":5302:5320   */\n      add\n        /* \"#utility.yul\":5294:5320   */\n      swap1\n      pop\n        /* \"#utility.yul\":5366:5375   */\n      dup2\n        /* \"#utility.yul\":5360:5364   */\n      dup2\n        /* \"#utility.yul\":5356:5376   */\n      sub\n        /* \"#utility.yul\":5352:5353   */\n      0x00\n        /* \"#utility.yul\":5341:5350   */\n      dup4\n        /* \"#utility.yul\":5337:5354   */\n      add\n        /* \"#utility.yul\":5330:5377   */\n      mstore\n        /* \"#utility.yul\":5394:5525   */\n      tag_99\n        /* \"#utility.yul\":5520:5524   */\n      dup2\n        /* \"#utility.yul\":5394:5525   */\n      tag_53\n      jump\t// in\n    tag_99:\n        /* \"#utility.yul\":5386:5525   */\n      swap1\n      pop\n        /* \"#utility.yul\":5113:5532   */\n      swap2\n      swap1\n      pop\n      jump\t// out\n        /* \"#utility.yul\":5538:5713   */\n    tag_54:\n        /* \"#utility.yul\":5678:5705   */\n      0x50757420736f6d652076616c756520746f206465706f73697400000000000000\n        /* \"#utility.yul\":5674:5675   */\n      0x00\n        /* \"#utility.yul\":5666:5672   */\n      dup3\n        /* \"#utility.yul\":5662:5676   */\n      add\n        /* \"#utility.yul\":5655:5706   */\n      mstore\n        /* \"#utility.yul\":5538:5713   */\n      pop\n      jump\t// out\n        /* \"#utility.yul\":5719:6085   */\n    tag_55:\n        /* \"#utility.yul\":5861:5864   */\n      0x00\n        /* \"#utility.yul\":5882:5949   */\n      tag_102\n        /* \"#utility.yul\":5946:5948   */\n      0x19\n        /* \"#utility.yul\":5941:5944   */\n      dup4\n        /* \"#utility.yul\":5882:5949   */\n      tag_44\n      jump\t// in\n    tag_102:\n        /* \"#utility.yul\":5875:5949   */\n      swap2\n      pop\n        /* \"#utility.yul\":5958:6051   */\n      tag_103\n        /* \"#utility.yul\":6047:6050   */\n      dup3\n        /* \"#utility.yul\":5958:6051   */\n      tag_54\n      jump\t// in\n    tag_103:\n        /* \"#utility.yul\":6076:6078   */\n      0x20\n        /* \"#utility.yul\":6071:6074   */\n      dup3\n        /* \"#utility.yul\":6067:6079   */\n      add\n        /* \"#utility.yul\":6060:6079   */\n      swap1\n      pop\n        /* \"#utility.yul\":5719:6085   */\n      swap2\n      swap1\n      pop\n      jump\t// out\n        /* \"#utility.yul\":6091:6510   */\n    tag_36:\n        /* \"#utility.yul\":6257:6261   */\n      0x00\n        /* \"#utility.yul\":6295:6297   */\n      0x20\n        /* \"#utility.yul\":6284:6293   */\n      dup3\n        /* \"#utility.yul\":6280:6298   */\n      add\n        /* \"#utility.yul\":6272:6298   */\n      swap1\n      pop\n        /* \"#utility.yul\":6344:6353   */\n      dup2\n        /* \"#utility.yul\":6338:6342   */\n      dup2\n        /* \"#utility.yul\":6334:6354   */\n      sub\n        /* \"#utility.yul\":6330:6331   */\n      0x00\n        /* \"#utility.yul\":6319:6328   */\n      dup4\n        /* \"#utility.yul\":6315:6332   */\n      add\n        /* \"#utility.yul\":6308:6355   */\n      mstore\n        /* \"#utility.yul\":6372:6503   */\n      tag_105\n        /* \"#utility.yul\":6498:6502   */\n      dup2\n        /* \"#utility.yul\":6372:6503   */\n      tag_55\n      jump\t// in\n    tag_105:\n        /* \"#utility.yul\":6364:6503   */\n      swap1\n      pop\n        /* \"#utility.yul\":6091:6510   */\n      swap2\n      swap1\n      pop\n      jump\t// out\n\n    auxdata: 0xa264697066735822122047828082f5519b8c72b9e8bacad7c5356640e4340c691b94f60ea83102f1e04a64736f6c634300081f0033\n}\n",
				"bytecode": {
					"linkReferences": {},
					"object": "6080604052348015600e575f5ffd5b506104c08061001c5f395ff3fe608060405260043610610033575f3560e01c806312065fe0146100375780632e1a7d4d14610061578063d0e30db014610089575b5f5ffd5b348015610042575f5ffd5b5061004b610093565b6040516100589190610227565b60405180910390f35b34801561006c575f5ffd5b506100876004803603810190610082919061026e565b61009a565b005b6100916101cb565b005b5f47905090565b5f81116100dc576040517f08c379a00000000000000000000000000000000000000000000000000000000081526004016100d3906102f3565b60405180910390fd5b8047101561011f576040517f08c379a00000000000000000000000000000000000000000000000000000000081526004016101169061035b565b60405180910390fd5b5f3373ffffffffffffffffffffffffffffffffffffffff1682604051610144906103a6565b5f6040518083038185875af1925050503d805f811461017e576040519150601f19603f3d011682016040523d82523d5f602084013e610183565b606091505b50509050806101c7576040517f08c379a00000000000000000000000000000000000000000000000000000000081526004016101be90610404565b60405180910390fd5b5050565b5f341161020d576040517f08c379a00000000000000000000000000000000000000000000000000000000081526004016102049061046c565b60405180910390fd5b565b5f819050919050565b6102218161020f565b82525050565b5f60208201905061023a5f830184610218565b92915050565b5f5ffd5b61024d8161020f565b8114610257575f5ffd5b50565b5f8135905061026881610244565b92915050565b5f6020828403121561028357610282610240565b5b5f6102908482850161025a565b91505092915050565b5f82825260208201905092915050565b7f416d6f756e74206d7573742062652067726561746572207468616e20300000005f82015250565b5f6102dd601d83610299565b91506102e8826102a9565b602082019050919050565b5f6020820190508181035f83015261030a816102d1565b9050919050565b7f496e73756666696369656e742042616c616e63650000000000000000000000005f82015250565b5f610345601483610299565b915061035082610311565b602082019050919050565b5f6020820190508181035f83015261037281610339565b9050919050565b5f81905092915050565b50565b5f6103915f83610379565b915061039c82610383565b5f82019050919050565b5f6103b082610386565b9150819050919050565b7f5472616e73666572206661696c65642e000000000000000000000000000000005f82015250565b5f6103ee601083610299565b91506103f9826103ba565b602082019050919050565b5f6020820190508181035f83015261041b816103e2565b9050919050565b7f50757420736f6d652076616c756520746f206465706f736974000000000000005f82015250565b5f610456601983610299565b915061046182610422565b602082019050919050565b5f6020820190508181035f8301526104838161044a565b905091905056fea264697066735822122047828082f5519b8c72b9e8bacad7c5356640e4340c691b94f60ea83102f1e04a64736f6c634300081f0033",
					"opcodes": "PUSH1 0x80 PUSH1 0x40 MSTORE CALLVALUE DUP1 ISZERO PUSH1 0xE JUMPI PUSH0 PUSH0 REVERT JUMPDEST POP PUSH2 0x4C0 DUP1 PUSH2 0x1C PUSH0 CODECOPY PUSH0 RETURN INVALID PUSH1 0x80 PUSH1 0x40 MSTORE PUSH1 0x4 CALLDATASIZE LT PUSH2 0x33 JUMPI PUSH0 CALLDATALOAD PUSH1 0xE0 SHR DUP1 PUSH4 0x12065FE0 EQ PUSH2 0x37 JUMPI DUP1 PUSH4 0x2E1A7D4D EQ PUSH2 0x61 JUMPI DUP1 PUSH4 0xD0E30DB0 EQ PUSH2 0x89 JUMPI JUMPDEST PUSH0 PUSH0 REVERT JUMPDEST CALLVALUE DUP1 ISZERO PUSH2 0x42 JUMPI PUSH0 PUSH0 REVERT JUMPDEST POP PUSH2 0x4B PUSH2 0x93 JUMP JUMPDEST PUSH1 0x40 MLOAD PUSH2 0x58 SWAP2 SWAP1 PUSH2 0x227 JUMP JUMPDEST PUSH1 0x40 MLOAD DUP1 SWAP2 SUB SWAP1 RETURN JUMPDEST CALLVALUE DUP1 ISZERO PUSH2 0x6C JUMPI PUSH0 PUSH0 REVERT JUMPDEST POP PUSH2 0x87 PUSH1 0x4 DUP1 CALLDATASIZE SUB DUP2 ADD SWAP1 PUSH2 0x82 SWAP2 SWAP1 PUSH2 0x26E JUMP JUMPDEST PUSH2 0x9A JUMP JUMPDEST STOP JUMPDEST PUSH2 0x91 PUSH2 0x1CB JUMP JUMPDEST STOP JUMPDEST PUSH0 SELFBALANCE SWAP1 POP SWAP1 JUMP JUMPDEST PUSH0 DUP2 GT PUSH2 0xDC JUMPI PUSH1 0x40 MLOAD PUSH32 0x8C379A000000000000000000000000000000000000000000000000000000000 DUP2 MSTORE PUSH1 0x4 ADD PUSH2 0xD3 SWAP1 PUSH2 0x2F3 JUMP JUMPDEST PUSH1 0x40 MLOAD DUP1 SWAP2 SUB SWAP1 REVERT JUMPDEST DUP1 SELFBALANCE LT ISZERO PUSH2 0x11F JUMPI PUSH1 0x40 MLOAD PUSH32 0x8C379A000000000000000000000000000000000000000000000000000000000 DUP2 MSTORE PUSH1 0x4 ADD PUSH2 0x116 SWAP1 PUSH2 0x35B JUMP JUMPDEST PUSH1 0x40 MLOAD DUP1 SWAP2 SUB SWAP1 REVERT JUMPDEST PUSH0 CALLER PUSH20 0xFFFFFFFFFFFFFFFFFFFFFFFFFFFFFFFFFFFFFFFF AND DUP3 PUSH1 0x40 MLOAD PUSH2 0x144 SWAP1 PUSH2 0x3A6 JUMP JUMPDEST PUSH0 PUSH1 0x40 MLOAD DUP1 DUP4 SUB DUP2 DUP6 DUP8 GAS CALL SWAP3 POP POP POP RETURNDATASIZE DUP1 PUSH0 DUP2 EQ PUSH2 0x17E JUMPI PUSH1 0x40 MLOAD SWAP2 POP PUSH1 0x1F NOT PUSH1 0x3F RETURNDATASIZE ADD AND DUP3 ADD PUSH1 0x40 MSTORE RETURNDATASIZE DUP3 MSTORE RETURNDATASIZE PUSH0 PUSH1 0x20 DUP5 ADD RETURNDATACOPY PUSH2 0x183 JUMP JUMPDEST PUSH1 0x60 SWAP2 POP JUMPDEST POP POP SWAP1 POP DUP1 PUSH2 0x1C7 JUMPI PUSH1 0x40 MLOAD PUSH32 0x8C379A000000000000000000000000000000000000000000000000000000000 DUP2 MSTORE PUSH1 0x4 ADD PUSH2 0x1BE SWAP1 PUSH2 0x404 JUMP JUMPDEST PUSH1 0x40 MLOAD DUP1 SWAP2 SUB SWAP1 REVERT JUMPDEST POP POP JUMP JUMPDEST PUSH0 CALLVALUE GT PUSH2 0x20D JUMPI PUSH1 0x40 MLOAD PUSH32 0x8C379A000000000000000000000000000000000000000000000000000000000 DUP2 MSTORE PUSH1 0x4 ADD PUSH2 0x204 SWAP1 PUSH2 0x46C JUMP JUMPDEST PUSH1 0x40 MLOAD DUP1 SWAP2 SUB SWAP1 REVERT JUMPDEST JUMP JUMPDEST PUSH0 DUP2 SWAP1 POP SWAP2 SWAP1 POP JUMP JUMPDEST PUSH2 0x221 DUP2 PUSH2 0x20F JUMP JUMPDEST DUP3 MSTORE POP POP JUMP JUMPDEST PUSH0 PUSH1 0x20 DUP3 ADD SWAP1 POP PUSH2 0x23A PUSH0 DUP4 ADD DUP5 PUSH2 0x218 JUMP JUMPDEST SWAP3 SWAP2 POP POP JUMP JUMPDEST PUSH0 PUSH0 REVERT JUMPDEST PUSH2 0x24D DUP2 PUSH2 0x20F JUMP JUMPDEST DUP2 EQ PUSH2 0x257 JUMPI PUSH0 PUSH0 REVERT JUMPDEST POP JUMP JUMPDEST PUSH0 DUP2 CALLDATALOAD SWAP1 POP PUSH2 0x268 DUP2 PUSH2 0x244 JUMP JUMPDEST SWAP3 SWAP2 POP POP JUMP JUMPDEST PUSH0 PUSH1 0x20 DUP3 DUP5 SUB SLT ISZERO PUSH2 0x283 JUMPI PUSH2 0x282 PUSH2 0x240 JUMP JUMPDEST JUMPDEST PUSH0 PUSH2 0x290 DUP5 DUP3 DUP6 ADD PUSH2 0x25A JUMP JUMPDEST SWAP2 POP POP SWAP3 SWAP2 POP POP JUMP JUMPDEST PUSH0 DUP3 DUP3 MSTORE PUSH1 0x20 DUP3 ADD SWAP1 POP SWAP3 SWAP2 POP POP JUMP JUMPDEST PUSH32 0x416D6F756E74206D7573742062652067726561746572207468616E2030000000 PUSH0 DUP3 ADD MSTORE POP JUMP JUMPDEST PUSH0 PUSH2 0x2DD PUSH1 0x1D DUP4 PUSH2 0x299 JUMP JUMPDEST SWAP2 POP PUSH2 0x2E8 DUP3 PUSH2 0x2A9 JUMP JUMPDEST PUSH1 0x20 DUP3 ADD SWAP1 POP SWAP2 SWAP1 POP JUMP JUMPDEST PUSH0 PUSH1 0x20 DUP3 ADD SWAP1 POP DUP2 DUP2 SUB PUSH0 DUP4 ADD MSTORE PUSH2 0x30A DUP2 PUSH2 0x2D1 JUMP JUMPDEST SWAP1 POP SWAP2 SWAP1 POP JUMP JUMPDEST PUSH32 0x496E73756666696369656E742042616C616E6365000000000000000000000000 PUSH0 DUP3 ADD MSTORE POP JUMP JUMPDEST PUSH0 PUSH2 0x345 PUSH1 0x14 DUP4 PUSH2 0x299 JUMP JUMPDEST SWAP2 POP PUSH2 0x350 DUP3 PUSH2 0x311 JUMP JUMPDEST PUSH1 0x20 DUP3 ADD SWAP1 POP SWAP2 SWAP1 POP JUMP JUMPDEST PUSH0 PUSH1 0x20 DUP3 ADD SWAP1 POP DUP2 DUP2 SUB PUSH0 DUP4 ADD MSTORE PUSH2 0x372 DUP2 PUSH2 0x339 JUMP JUMPDEST SWAP1 POP SWAP2 SWAP1 POP JUMP JUMPDEST PUSH0 DUP2 SWAP1 POP SWAP3 SWAP2 POP POP JUMP JUMPDEST POP JUMP JUMPDEST PUSH0 PUSH2 0x391 PUSH0 DUP4 PUSH2 0x379 JUMP JUMPDEST SWAP2 POP PUSH2 0x39C DUP3 PUSH2 0x383 JUMP JUMPDEST PUSH0 DUP3 ADD SWAP1 POP SWAP2 SWAP1 POP JUMP JUMPDEST PUSH0 PUSH2 0x3B0 DUP3 PUSH2 0x386 JUMP JUMPDEST SWAP2 POP DUP2 SWAP1 POP SWAP2 SWAP1 POP JUMP JUMPDEST PUSH32 0x5472616E73666572206661696C65642E00000000000000000000000000000000 PUSH0 DUP3 ADD MSTORE POP JUMP JUMPDEST PUSH0 PUSH2 0x3EE PUSH1 0x10 DUP4 PUSH2 0x299 JUMP JUMPDEST SWAP2 POP PUSH2 0x3F9 DUP3 PUSH2 0x3BA JUMP JUMPDEST PUSH1 0x20 DUP3 ADD SWAP1 POP SWAP2 SWAP1 POP JUMP JUMPDEST PUSH0 PUSH1 0x20 DUP3 ADD SWAP1 POP DUP2 DUP2 SUB PUSH0 DUP4 ADD MSTORE PUSH2 0x41B DUP2 PUSH2 0x3E2 JUMP JUMPDEST SWAP1 POP SWAP2 SWAP1 POP JUMP JUMPDEST PUSH32 0x50757420736F6D652076616C756520746F206465706F73697400000000000000 PUSH0 DUP3 ADD MSTORE POP JUMP JUMPDEST PUSH0 PUSH2 0x456 PUSH1 0x19 DUP4 PUSH2 0x299 JUMP JUMPDEST SWAP2 POP PUSH2 0x461 DUP3 PUSH2 0x422 JUMP JUMPDEST PUSH1 0x20 DUP3 ADD SWAP1 POP SWAP2 SWAP1 POP JUMP JUMPDEST PUSH0 PUSH1 0x20 DUP3 ADD SWAP1 POP DUP2 DUP2 SUB PUSH0 DUP4 ADD MSTORE PUSH2 0x483 DUP2 PUSH2 0x44A JUMP JUMPDEST SWAP1 POP SWAP2 SWAP1 POP JUMP INVALID LOG2 PUSH5 0x6970667358 0x22 SLT KECCAK256 SELFBALANCE DUP3 DUP1 DUP3 CREATE2 MLOAD SWAP12 DUP13 PUSH19 0xB9E8BACAD7C5356640E4340C691B94F60EA831 MUL CALL RJUMP 0x4A64 PUSH20 0x6F6C634300081F00330000000000000000000000 "
				},
				"gasEstimates": {
					"creation": {
						"codeDepositCost": "243200",
						"executionCost": "279",
						"totalCost": "243479"
					},
					"external": {
						"deposit()": "446",
						"getBalance()": "312",
						"withdraw(uint256)": "infinite"
					}
				},
				"methodIdentifiers": {
					"deposit()": "d0e30db0",
					"getBalance()": "12065fe0",
					"withdraw(uint256)": "2e1a7d4d"
				}
			},
			"storageLayout": {
				"storage": [],
				"types": null
			},
			"userdoc": {
				"kind": "user",
				"methods": {},
				"version": 1
			}
		}
	}
}